{"abi":[{"inputs":[{"internalType":"string","name":"_name","type":"string"},{"internalType":"string","name":"_symbol","type":"string"},{"internalType":"uint256","name":"_decimals","type":"uint256"},{"internalType":"address","name":"_underlyingToken","type":"address"},{"internalType":"address","name":"_lendingPool","type":"address"}],"payable":false,"stateMutability":"nonpayable","type":"constructor","name":"constructor"},{"anonymous":false,"inputs":[{"indexed":false,"internalType":"address","name":"owner","type":"address"},{"indexed":false,"internalType":"address","name":"spender","type":"address"},{"indexed":false,"internalType":"uint256","name":"value","type":"uint256"}],"name":"Approval","type":"event"},{"anonymous":false,"inputs":[{"indexed":false,"internalType":"address","name":"from","type":"address"},{"indexed":false,"internalType":"address","name":"to","type":"address"},{"indexed":false,"internalType":"uint256","name":"value","type":"uint256"}],"name":"Transfer","type":"event"},{"constant":true,"inputs":[],"name":"_get_rate","outputs":[{"internalType":"uint256","name":"","type":"uint256"}],"payable":false,"stateMutability":"view","type":"function"},{"constant":false,"inputs":[{"internalType":"address","name":"_to","type":"address"},{"internalType":"uint256","name":"_amount","type":"uint256"}],"name":"_mint_for_testing","outputs":[],"payable":false,"stateMutability":"nonpayable","type":"function"},{"constant":false,"inputs":[{"internalType":"address","name":"_pool","type":"address"}],"name":"_set_pool","outputs":[],"payable":false,"stateMutability":"nonpayable","type":"function"},{"constant":true,"inputs":[{"internalType":"address","name":"_owner","type":"address"},{"internalType":"address","name":"_spender","type":"address"}],"name":"allowance","outputs":[{"internalType":"uint256","name":"","type":"uint256"}],"payable":false,"stateMutability":"view","type":"function"},{"constant":false,"inputs":[{"internalType":"address","name":"_spender","type":"address"},{"internalType":"uint256","name":"_value","type":"uint256"}],"name":"approve","outputs":[{"internalType":"bool","name":"","type":"bool"}],"payable":false,"stateMutability":"nonpayable","type":"function"},{"constant":true,"inputs":[{"internalType":"address","name":"_owner","type":"address"}],"name":"balanceOf","outputs":[{"internalType":"uint256","name":"","type":"uint256"}],"payable":false,"stateMutability":"view","type":"function"},{"constant":true,"inputs":[],"name":"decimals","outputs":[{"internalType":"uint256","name":"","type":"uint256"}],"payable":false,"stateMutability":"view","type":"function"},{"constant":false,"inputs":[{"internalType":"address","name":"_to","type":"address"},{"internalType":"uint256","name":"_amount","type":"uint256"}],"name":"mint","outputs":[],"payable":false,"stateMutability":"nonpayable","type":"function"},{"constant":true,"inputs":[],"name":"name","outputs":[{"internalType":"string","name":"","type":"string"}],"payable":false,"stateMutability":"view","type":"function"},{"constant":false,"inputs":[{"internalType":"address","name":"_from","type":"address"},{"internalType":"address","name":"_to","type":"address"},{"internalType":"uint256","name":"_amount","type":"uint256"}],"name":"redeem","outputs":[],"payable":false,"stateMutability":"nonpayable","type":"function"},{"constant":false,"inputs":[{"internalType":"uint256","name":"_rate","type":"uint256"}],"name":"set_exchange_rate","outputs":[],"payable":false,"stateMutability":"nonpayable","type":"function"},{"constant":true,"inputs":[],"name":"symbol","outputs":[{"internalType":"string","name":"","type":"string"}],"payable":false,"stateMutability":"view","type":"function"},{"constant":true,"inputs":[],"name":"totalSupply","outputs":[{"internalType":"uint256","name":"","type":"uint256"}],"payable":false,"stateMutability":"view","type":"function"},{"constant":false,"inputs":[{"internalType":"address","name":"_to","type":"address"},{"internalType":"uint256","name":"_value","type":"uint256"}],"name":"transfer","outputs":[{"internalType":"bool","name":"","type":"bool"}],"payable":false,"stateMutability":"nonpayable","type":"function"},{"constant":false,"inputs":[{"internalType":"address","name":"_from","type":"address"},{"internalType":"address","name":"_to","type":"address"},{"internalType":"uint256","name":"_value","type":"uint256"}],"name":"transferFrom","outputs":[{"internalType":"bool","name":"","type":"bool"}],"payable":false,"stateMutability":"nonpayable","type":"function"}],"bytecode":"60806040523480156200001157600080fd5b5060405162000e2938038062000e29833981810160405260a08110156200003757600080fd5b81019080805160405193929190846401000000008211156200005857600080fd5b9083019060208201858111156200006e57600080fd5b82516401000000008111828201881017156200008957600080fd5b82525081516020918201929091019080838360005b83811015620000b85781810151838201526020016200009e565b50505050905090810190601f168015620000e65780820380516001836020036101000a031916815260200191505b50604052602001805160405193929190846401000000008211156200010a57600080fd5b9083019060208201858111156200012057600080fd5b82516401000000008111828201881017156200013b57600080fd5b82525081516020918201929091019080838360005b838110156200016a57818101518382015260200162000150565b50505050905090810190601f168015620001985780820380516001836020036101000a031916815260200191505b506040908152602082810151918301516060909301518651929550929350620001c79160009187019062000289565b508451620001dd90600190602088019062000289565b506002839055600780546001600160a01b038085166001600160a01b0319928316811790935560068054918516919092168117909155670de0b6b3a76400006005556040805163fdcc636360e01b8152600481019390935230602484015251909163fdcc636391604480830192600092919082900301818387803b1580156200026557600080fd5b505af11580156200027a573d6000803e3d6000fd5b5050505050505050506200032e565b828054600181600116156101000203166002900490600052602060002090601f016020900481019282601f10620002cc57805160ff1916838001178555620002fc565b82800160010185558215620002fc579182015b82811115620002fc578251825591602001919060010190620002df565b506200030a9291506200030e565b5090565b6200032b91905b808211156200030a576000815560010162000315565b90565b610aeb806200033e6000396000f3fe608060405234801561001057600080fd5b50600436106100f55760003560e01c806340c10f1911610097578063a9059cbb11610066578063a9059cbb146102e4578063cf4f29d814610310578063dd62ed3e14610318578063f8c1410214610346576100f5565b806340c10f191461026457806370a08231146102905780637cb2566c146102b657806395d89b41146102dc576100f5565b80630e6dfcd5116100d35780630e6dfcd5146101d657806318160ddd1461020c57806323b872dd14610226578063313ce5671461025c576100f5565b806306fdde03146100fa578063095ea7b3146101775780630e216fe9146101b7575b600080fd5b610102610372565b6040805160208082528351818301528351919283929083019185019080838360005b8381101561013c578181015183820152602001610124565b50505050905090810190601f1680156101695780820380516001836020036101000a031916815260200191505b509250505060405180910390f35b6101a36004803603604081101561018d57600080fd5b506001600160a01b0381351690602001356103ff565b604080519115158252519081900360200190f35b6101d4600480360360208110156101cd57600080fd5b5035610471565b005b6101d4600480360360608110156101ec57600080fd5b506001600160a01b03813581169160208101359091169060400135610527565b61021461061e565b60408051918252519081900360200190f35b6101a36004803603606081101561023c57600080fd5b506001600160a01b03813581169160208101359091169060400135610624565b610214610724565b6101d46004803603604081101561027a57600080fd5b506001600160a01b03813516906020013561072a565b610214600480360360208110156102a657600080fd5b50356001600160a01b03166107ce565b6101d4600480360360208110156102cc57600080fd5b50356001600160a01b03166107e9565b61010261080b565b6101a3600480360360408110156102fa57600080fd5b506001600160a01b038135169060200135610866565b61021461090c565b6102146004803603604081101561032e57600080fd5b506001600160a01b0381358116916020013516610912565b6101d46004803603604081101561035c57600080fd5b506001600160a01b03813516906020013561093d565b60018054604080516020600284861615610100026000190190941693909304601f810184900484028201840190925281815292918301828280156103f75780601f106103cc576101008083540402835291602001916103f7565b820191906000526020600020905b8154815290600101906020018083116103da57829003601f168201915b505050505081565b3360008181526009602090815260408083206001600160a01b0387168085529083528184208690558151948552918401919091528281018490525190917f8c5be1e5ebec7d5bd14f71427d1e84f3dd0314c0f7b2291e5b200ac8c7c3b925919081900360600190a15060015b92915050565b6004546001600160a01b031660009081526008602052604090205460035461049e9163ffffffff610a3116565b6003556004546001600160a01b03166000908152600860205260409020546104e690670de0b6b3a7640000906104da908463ffffffff610a4616565b9063ffffffff610a6716565b600480546001600160a01b0390811660009081526008602052604080822094909455915416815220546003546105219163ffffffff610a8616565b60035550565b60035461053a908263ffffffff610a3116565b6003556001600160a01b038316600090815260086020526040902054610566908263ffffffff610a3116565b6001600160a01b0380851660009081526008602052604080822093909355600754835163a9059cbb60e01b8152868416600482015260248101869052935192169263a9059cbb926044808301939282900301818387803b1580156105c957600080fd5b505af11580156105dd573d6000803e3d6000fd5b5050604080516001600160a01b0387168152600060208201528082018590529051600080516020610a978339815191529350908190036060019150a1505050565b60035481565b6001600160a01b03831660009081526008602052604081205461064d908363ffffffff610a3116565b6001600160a01b038516600090815260086020908152604080832093909355600981528282203383529052205461068a908363ffffffff610a3116565b6001600160a01b0380861660009081526009602090815260408083203384528252808320949094559186168152600890915220546106ce908363ffffffff610a8616565b6001600160a01b038085166000818152600860209081526040918290209490945580519288168352928201528082018490529051600080516020610a978339815191529181900360600190a15060019392505050565b60025481565b6006546001600160a01b0316331461074157600080fd5b600354610754908263ffffffff610a8616565b6003556001600160a01b038216600090815260086020526040902054610780908263ffffffff610a8616565b6001600160a01b03831660008181526008602090815260408083209490945583519182528101919091528082018390529051600080516020610a978339815191529181900360600190a15050565b6001600160a01b031660009081526008602052604090205490565b600480546001600160a01b0319166001600160a01b0392909216919091179055565b6000805460408051602060026001851615610100026000190190941693909304601f810184900484028201840190925281815292918301828280156103f75780601f106103cc576101008083540402835291602001916103f7565b33600090815260086020526040812054610886908363ffffffff610a3116565b33600090815260086020526040808220929092556001600160a01b038516815220546108b8908363ffffffff610a8616565b6001600160a01b0384166000818152600860209081526040918290209390935580513381529283019190915281810184905251600080516020610a978339815191529181900360600190a150600192915050565b60055481565b6001600160a01b03918216600090815260096020908152604080832093909416825291909152205490565b600354610950908263ffffffff610a8616565b6003556001600160a01b03821660009081526008602052604090205461097c908263ffffffff610a8616565b6001600160a01b03808416600090815260086020526040808220939093556007548351637c60a08160e11b815230600482015260248101869052935192169263f8c14102926044808301939282900301818387803b1580156109dd57600080fd5b505af11580156109f1573d6000803e3d6000fd5b505060408051600081526001600160a01b03861660208201528082018590529051600080516020610a978339815191529350908190036060019150a15050565b600082821115610a4057600080fd5b50900390565b818102821580610a5e575081838281610a5b57fe5b04145b61046b57600080fd5b6000808211610a7557600080fd5b818381610a7e57fe5b049392505050565b8181018281101561046b57600080fdfeddf252ad1be2c89b69c2b068fc378daa952ba7f163c4a11628f55a4df523b3efa265627a7a723158204e90f7b255f7d49408b0c809cdfb6d5fc47dccebd25eae18c5903a26033e350c64736f6c63430005110032","bytecodeSha1":"8e3fa68d1a9d6f12790812081fd769fc77ac5c44","compiler":{"evm_version":"istanbul","optimizer":{"enabled":true,"runs":200},"version":"0.5.17+commit.d19bba13"},"contractName":"ATokenMock","language":"Solidity","natspec":{"methods":{}},"opcodes":"PUSH1 0x80 PUSH1 0x40 MSTORE CALLVALUE DUP1 ISZERO PUSH2 0x10 JUMPI PUSH1 0x0 DUP1 REVERT JUMPDEST POP PUSH1 0x4 CALLDATASIZE LT PUSH2 0xF5 JUMPI PUSH1 0x0 CALLDATALOAD PUSH1 0xE0 SHR DUP1 PUSH4 0x40C10F19 GT PUSH2 0x97 JUMPI DUP1 PUSH4 0xA9059CBB GT PUSH2 0x66 JUMPI DUP1 PUSH4 0xA9059CBB EQ PUSH2 0x2E4 JUMPI DUP1 PUSH4 0xCF4F29D8 EQ PUSH2 0x310 JUMPI DUP1 PUSH4 0xDD62ED3E EQ PUSH2 0x318 JUMPI DUP1 PUSH4 0xF8C14102 EQ PUSH2 0x346 JUMPI PUSH2 0xF5 JUMP JUMPDEST DUP1 PUSH4 0x40C10F19 EQ PUSH2 0x264 JUMPI DUP1 PUSH4 0x70A08231 EQ PUSH2 0x290 JUMPI DUP1 PUSH4 0x7CB2566C EQ PUSH2 0x2B6 JUMPI DUP1 PUSH4 0x95D89B41 EQ PUSH2 0x2DC JUMPI PUSH2 0xF5 JUMP JUMPDEST DUP1 PUSH4 0xE6DFCD5 GT PUSH2 0xD3 JUMPI DUP1 PUSH4 0xE6DFCD5 EQ PUSH2 0x1D6 JUMPI DUP1 PUSH4 0x18160DDD EQ PUSH2 0x20C JUMPI DUP1 PUSH4 0x23B872DD EQ PUSH2 0x226 JUMPI DUP1 PUSH4 0x313CE567 EQ PUSH2 0x25C JUMPI PUSH2 0xF5 JUMP JUMPDEST DUP1 PUSH4 0x6FDDE03 EQ PUSH2 0xFA JUMPI DUP1 PUSH4 0x95EA7B3 EQ PUSH2 0x177 JUMPI DUP1 PUSH4 0xE216FE9 EQ PUSH2 0x1B7 JUMPI JUMPDEST PUSH1 0x0 DUP1 REVERT JUMPDEST PUSH2 0x102 PUSH2 0x372 JUMP JUMPDEST PUSH1 0x40 DUP1 MLOAD PUSH1 0x20 DUP1 DUP3 MSTORE DUP4 MLOAD DUP2 DUP4 ADD MSTORE DUP4 MLOAD SWAP2 SWAP3 DUP4 SWAP3 SWAP1 DUP4 ADD SWAP2 DUP6 ADD SWAP1 DUP1 DUP4 DUP4 PUSH1 0x0 JUMPDEST DUP4 DUP2 LT ISZERO PUSH2 0x13C JUMPI DUP2 DUP2 ADD MLOAD DUP4 DUP3 ADD MSTORE PUSH1 0x20 ADD PUSH2 0x124 JUMP JUMPDEST POP POP POP POP SWAP1 POP SWAP1 DUP2 ADD SWAP1 PUSH1 0x1F AND DUP1 ISZERO PUSH2 0x169 JUMPI DUP1 DUP3 SUB DUP1 MLOAD PUSH1 0x1 DUP4 PUSH1 0x20 SUB PUSH2 0x100 EXP SUB NOT AND DUP2 MSTORE PUSH1 0x20 ADD SWAP2 POP JUMPDEST POP SWAP3 POP POP POP PUSH1 0x40 MLOAD DUP1 SWAP2 SUB SWAP1 RETURN JUMPDEST PUSH2 0x1A3 PUSH1 0x4 DUP1 CALLDATASIZE SUB PUSH1 0x40 DUP2 LT ISZERO PUSH2 0x18D JUMPI PUSH1 0x0 DUP1 REVERT JUMPDEST POP PUSH1 0x1 PUSH1 0x1 PUSH1 0xA0 SHL SUB DUP2 CALLDATALOAD AND SWAP1 PUSH1 0x20 ADD CALLDATALOAD PUSH2 0x3FF JUMP JUMPDEST PUSH1 0x40 DUP1 MLOAD SWAP2 ISZERO ISZERO DUP3 MSTORE MLOAD SWAP1 DUP2 SWAP1 SUB PUSH1 0x20 ADD SWAP1 RETURN JUMPDEST PUSH2 0x1D4 PUSH1 0x4 DUP1 CALLDATASIZE SUB PUSH1 0x20 DUP2 LT ISZERO PUSH2 0x1CD JUMPI PUSH1 0x0 DUP1 REVERT JUMPDEST POP CALLDATALOAD PUSH2 0x471 JUMP JUMPDEST STOP JUMPDEST PUSH2 0x1D4 PUSH1 0x4 DUP1 CALLDATASIZE SUB PUSH1 0x60 DUP2 LT ISZERO PUSH2 0x1EC JUMPI PUSH1 0x0 DUP1 REVERT JUMPDEST POP PUSH1 0x1 PUSH1 0x1 PUSH1 0xA0 SHL SUB DUP2 CALLDATALOAD DUP2 AND SWAP2 PUSH1 0x20 DUP2 ADD CALLDATALOAD SWAP1 SWAP2 AND SWAP1 PUSH1 0x40 ADD CALLDATALOAD PUSH2 0x527 JUMP JUMPDEST PUSH2 0x214 PUSH2 0x61E JUMP JUMPDEST PUSH1 0x40 DUP1 MLOAD SWAP2 DUP3 MSTORE MLOAD SWAP1 DUP2 SWAP1 SUB PUSH1 0x20 ADD SWAP1 RETURN JUMPDEST PUSH2 0x1A3 PUSH1 0x4 DUP1 CALLDATASIZE SUB PUSH1 0x60 DUP2 LT ISZERO PUSH2 0x23C JUMPI PUSH1 0x0 DUP1 REVERT JUMPDEST POP PUSH1 0x1 PUSH1 0x1 PUSH1 0xA0 SHL SUB DUP2 CALLDATALOAD DUP2 AND SWAP2 PUSH1 0x20 DUP2 ADD CALLDATALOAD SWAP1 SWAP2 AND SWAP1 PUSH1 0x40 ADD CALLDATALOAD PUSH2 0x624 JUMP JUMPDEST PUSH2 0x214 PUSH2 0x724 JUMP JUMPDEST PUSH2 0x1D4 PUSH1 0x4 DUP1 CALLDATASIZE SUB PUSH1 0x40 DUP2 LT ISZERO PUSH2 0x27A JUMPI PUSH1 0x0 DUP1 REVERT JUMPDEST POP PUSH1 0x1 PUSH1 0x1 PUSH1 0xA0 SHL SUB DUP2 CALLDATALOAD AND SWAP1 PUSH1 0x20 ADD CALLDATALOAD PUSH2 0x72A JUMP JUMPDEST PUSH2 0x214 PUSH1 0x4 DUP1 CALLDATASIZE SUB PUSH1 0x20 DUP2 LT ISZERO PUSH2 0x2A6 JUMPI PUSH1 0x0 DUP1 REVERT JUMPDEST POP CALLDATALOAD PUSH1 0x1 PUSH1 0x1 PUSH1 0xA0 SHL SUB AND PUSH2 0x7CE JUMP JUMPDEST PUSH2 0x1D4 PUSH1 0x4 DUP1 CALLDATASIZE SUB PUSH1 0x20 DUP2 LT ISZERO PUSH2 0x2CC JUMPI PUSH1 0x0 DUP1 REVERT JUMPDEST POP CALLDATALOAD PUSH1 0x1 PUSH1 0x1 PUSH1 0xA0 SHL SUB AND PUSH2 0x7E9 JUMP JUMPDEST PUSH2 0x102 PUSH2 0x80B JUMP JUMPDEST PUSH2 0x1A3 PUSH1 0x4 DUP1 CALLDATASIZE SUB PUSH1 0x40 DUP2 LT ISZERO PUSH2 0x2FA JUMPI PUSH1 0x0 DUP1 REVERT JUMPDEST POP PUSH1 0x1 PUSH1 0x1 PUSH1 0xA0 SHL SUB DUP2 CALLDATALOAD AND SWAP1 PUSH1 0x20 ADD CALLDATALOAD PUSH2 0x866 JUMP JUMPDEST PUSH2 0x214 PUSH2 0x90C JUMP JUMPDEST PUSH2 0x214 PUSH1 0x4 DUP1 CALLDATASIZE SUB PUSH1 0x40 DUP2 LT ISZERO PUSH2 0x32E JUMPI PUSH1 0x0 DUP1 REVERT JUMPDEST POP PUSH1 0x1 PUSH1 0x1 PUSH1 0xA0 SHL SUB DUP2 CALLDATALOAD DUP2 AND SWAP2 PUSH1 0x20 ADD CALLDATALOAD AND PUSH2 0x912 JUMP JUMPDEST PUSH2 0x1D4 PUSH1 0x4 DUP1 CALLDATASIZE SUB PUSH1 0x40 DUP2 LT ISZERO PUSH2 0x35C JUMPI PUSH1 0x0 DUP1 REVERT JUMPDEST POP PUSH1 0x1 PUSH1 0x1 PUSH1 0xA0 SHL SUB DUP2 CALLDATALOAD AND SWAP1 PUSH1 0x20 ADD CALLDATALOAD PUSH2 0x93D JUMP JUMPDEST PUSH1 0x1 DUP1 SLOAD PUSH1 0x40 DUP1 MLOAD PUSH1 0x20 PUSH1 0x2 DUP5 DUP7 AND ISZERO PUSH2 0x100 MUL PUSH1 0x0 NOT ADD SWAP1 SWAP5 AND SWAP4 SWAP1 SWAP4 DIV PUSH1 0x1F DUP2 ADD DUP5 SWAP1 DIV DUP5 MUL DUP3 ADD DUP5 ADD SWAP1 SWAP3 MSTORE DUP2 DUP2 MSTORE SWAP3 SWAP2 DUP4 ADD DUP3 DUP3 DUP1 ISZERO PUSH2 0x3F7 JUMPI DUP1 PUSH1 0x1F LT PUSH2 0x3CC JUMPI PUSH2 0x100 DUP1 DUP4 SLOAD DIV MUL DUP4 MSTORE SWAP2 PUSH1 0x20 ADD SWAP2 PUSH2 0x3F7 JUMP JUMPDEST DUP3 ADD SWAP2 SWAP1 PUSH1 0x0 MSTORE PUSH1 0x20 PUSH1 0x0 KECCAK256 SWAP1 JUMPDEST DUP2 SLOAD DUP2 MSTORE SWAP1 PUSH1 0x1 ADD SWAP1 PUSH1 0x20 ADD DUP1 DUP4 GT PUSH2 0x3DA JUMPI DUP3 SWAP1 SUB PUSH1 0x1F AND DUP3 ADD SWAP2 JUMPDEST POP POP POP POP POP DUP2 JUMP JUMPDEST CALLER PUSH1 0x0 DUP2 DUP2 MSTORE PUSH1 0x9 PUSH1 0x20 SWAP1 DUP2 MSTORE PUSH1 0x40 DUP1 DUP4 KECCAK256 PUSH1 0x1 PUSH1 0x1 PUSH1 0xA0 SHL SUB DUP8 AND DUP1 DUP6 MSTORE SWAP1 DUP4 MSTORE DUP2 DUP5 KECCAK256 DUP7 SWAP1 SSTORE DUP2 MLOAD SWAP5 DUP6 MSTORE SWAP2 DUP5 ADD SWAP2 SWAP1 SWAP2 MSTORE DUP3 DUP2 ADD DUP5 SWAP1 MSTORE MLOAD SWAP1 SWAP2 PUSH32 0x8C5BE1E5EBEC7D5BD14F71427D1E84F3DD0314C0F7B2291E5B200AC8C7C3B925 SWAP2 SWAP1 DUP2 SWAP1 SUB PUSH1 0x60 ADD SWAP1 LOG1 POP PUSH1 0x1 JUMPDEST SWAP3 SWAP2 POP POP JUMP JUMPDEST PUSH1 0x4 SLOAD PUSH1 0x1 PUSH1 0x1 PUSH1 0xA0 SHL SUB AND PUSH1 0x0 SWAP1 DUP2 MSTORE PUSH1 0x8 PUSH1 0x20 MSTORE PUSH1 0x40 SWAP1 KECCAK256 SLOAD PUSH1 0x3 SLOAD PUSH2 0x49E SWAP2 PUSH4 0xFFFFFFFF PUSH2 0xA31 AND JUMP JUMPDEST PUSH1 0x3 SSTORE PUSH1 0x4 SLOAD PUSH1 0x1 PUSH1 0x1 PUSH1 0xA0 SHL SUB AND PUSH1 0x0 SWAP1 DUP2 MSTORE PUSH1 0x8 PUSH1 0x20 MSTORE PUSH1 0x40 SWAP1 KECCAK256 SLOAD PUSH2 0x4E6 SWAP1 PUSH8 0xDE0B6B3A7640000 SWAP1 PUSH2 0x4DA SWAP1 DUP5 PUSH4 0xFFFFFFFF PUSH2 0xA46 AND JUMP JUMPDEST SWAP1 PUSH4 0xFFFFFFFF PUSH2 0xA67 AND JUMP JUMPDEST PUSH1 0x4 DUP1 SLOAD PUSH1 0x1 PUSH1 0x1 PUSH1 0xA0 SHL SUB SWAP1 DUP2 AND PUSH1 0x0 SWAP1 DUP2 MSTORE PUSH1 0x8 PUSH1 0x20 MSTORE PUSH1 0x40 DUP1 DUP3 KECCAK256 SWAP5 SWAP1 SWAP5 SSTORE SWAP2 SLOAD AND DUP2 MSTORE KECCAK256 SLOAD PUSH1 0x3 SLOAD PUSH2 0x521 SWAP2 PUSH4 0xFFFFFFFF PUSH2 0xA86 AND JUMP JUMPDEST PUSH1 0x3 SSTORE POP JUMP JUMPDEST PUSH1 0x3 SLOAD PUSH2 0x53A SWAP1 DUP3 PUSH4 0xFFFFFFFF PUSH2 0xA31 AND JUMP JUMPDEST PUSH1 0x3 SSTORE PUSH1 0x1 PUSH1 0x1 PUSH1 0xA0 SHL SUB DUP4 AND PUSH1 0x0 SWAP1 DUP2 MSTORE PUSH1 0x8 PUSH1 0x20 MSTORE PUSH1 0x40 SWAP1 KECCAK256 SLOAD PUSH2 0x566 SWAP1 DUP3 PUSH4 0xFFFFFFFF PUSH2 0xA31 AND JUMP JUMPDEST PUSH1 0x1 PUSH1 0x1 PUSH1 0xA0 SHL SUB DUP1 DUP6 AND PUSH1 0x0 SWAP1 DUP2 MSTORE PUSH1 0x8 PUSH1 0x20 MSTORE PUSH1 0x40 DUP1 DUP3 KECCAK256 SWAP4 SWAP1 SWAP4 SSTORE PUSH1 0x7 SLOAD DUP4 MLOAD PUSH4 0xA9059CBB PUSH1 0xE0 SHL DUP2 MSTORE DUP7 DUP5 AND PUSH1 0x4 DUP3 ADD MSTORE PUSH1 0x24 DUP2 ADD DUP7 SWAP1 MSTORE SWAP4 MLOAD SWAP3 AND SWAP3 PUSH4 0xA9059CBB SWAP3 PUSH1 0x44 DUP1 DUP4 ADD SWAP4 SWAP3 DUP3 SWAP1 SUB ADD DUP2 DUP4 DUP8 DUP1 EXTCODESIZE ISZERO DUP1 ISZERO PUSH2 0x5C9 JUMPI PUSH1 0x0 DUP1 REVERT JUMPDEST POP GAS CALL ISZERO DUP1 ISZERO PUSH2 0x5DD JUMPI RETURNDATASIZE PUSH1 0x0 DUP1 RETURNDATACOPY RETURNDATASIZE PUSH1 0x0 REVERT JUMPDEST POP POP PUSH1 0x40 DUP1 MLOAD PUSH1 0x1 PUSH1 0x1 PUSH1 0xA0 SHL SUB DUP8 AND DUP2 MSTORE PUSH1 0x0 PUSH1 0x20 DUP3 ADD MSTORE DUP1 DUP3 ADD DUP6 SWAP1 MSTORE SWAP1 MLOAD PUSH1 0x0 DUP1 MLOAD PUSH1 0x20 PUSH2 0xA97 DUP4 CODECOPY DUP2 MLOAD SWAP2 MSTORE SWAP4 POP SWAP1 DUP2 SWAP1 SUB PUSH1 0x60 ADD SWAP2 POP LOG1 POP POP POP JUMP JUMPDEST PUSH1 0x3 SLOAD DUP2 JUMP JUMPDEST PUSH1 0x1 PUSH1 0x1 PUSH1 0xA0 SHL SUB DUP4 AND PUSH1 0x0 SWAP1 DUP2 MSTORE PUSH1 0x8 PUSH1 0x20 MSTORE PUSH1 0x40 DUP2 KECCAK256 SLOAD PUSH2 0x64D SWAP1 DUP4 PUSH4 0xFFFFFFFF PUSH2 0xA31 AND JUMP JUMPDEST PUSH1 0x1 PUSH1 0x1 PUSH1 0xA0 SHL SUB DUP6 AND PUSH1 0x0 SWAP1 DUP2 MSTORE PUSH1 0x8 PUSH1 0x20 SWAP1 DUP2 MSTORE PUSH1 0x40 DUP1 DUP4 KECCAK256 SWAP4 SWAP1 SWAP4 SSTORE PUSH1 0x9 DUP2 MSTORE DUP3 DUP3 KECCAK256 CALLER DUP4 MSTORE SWAP1 MSTORE KECCAK256 SLOAD PUSH2 0x68A SWAP1 DUP4 PUSH4 0xFFFFFFFF PUSH2 0xA31 AND JUMP JUMPDEST PUSH1 0x1 PUSH1 0x1 PUSH1 0xA0 SHL SUB DUP1 DUP7 AND PUSH1 0x0 SWAP1 DUP2 MSTORE PUSH1 0x9 PUSH1 0x20 SWAP1 DUP2 MSTORE PUSH1 0x40 DUP1 DUP4 KECCAK256 CALLER DUP5 MSTORE DUP3 MSTORE DUP1 DUP4 KECCAK256 SWAP5 SWAP1 SWAP5 SSTORE SWAP2 DUP7 AND DUP2 MSTORE PUSH1 0x8 SWAP1 SWAP2 MSTORE KECCAK256 SLOAD PUSH2 0x6CE SWAP1 DUP4 PUSH4 0xFFFFFFFF PUSH2 0xA86 AND JUMP JUMPDEST PUSH1 0x1 PUSH1 0x1 PUSH1 0xA0 SHL SUB DUP1 DUP6 AND PUSH1 0x0 DUP2 DUP2 MSTORE PUSH1 0x8 PUSH1 0x20 SWAP1 DUP2 MSTORE PUSH1 0x40 SWAP2 DUP3 SWAP1 KECCAK256 SWAP5 SWAP1 SWAP5 SSTORE DUP1 MLOAD SWAP3 DUP9 AND DUP4 MSTORE SWAP3 DUP3 ADD MSTORE DUP1 DUP3 ADD DUP5 SWAP1 MSTORE SWAP1 MLOAD PUSH1 0x0 DUP1 MLOAD PUSH1 0x20 PUSH2 0xA97 DUP4 CODECOPY DUP2 MLOAD SWAP2 MSTORE SWAP2 DUP2 SWAP1 SUB PUSH1 0x60 ADD SWAP1 LOG1 POP PUSH1 0x1 SWAP4 SWAP3 POP POP POP JUMP JUMPDEST PUSH1 0x2 SLOAD DUP2 JUMP JUMPDEST PUSH1 0x6 SLOAD PUSH1 0x1 PUSH1 0x1 PUSH1 0xA0 SHL SUB AND CALLER EQ PUSH2 0x741 JUMPI PUSH1 0x0 DUP1 REVERT JUMPDEST PUSH1 0x3 SLOAD PUSH2 0x754 SWAP1 DUP3 PUSH4 0xFFFFFFFF PUSH2 0xA86 AND JUMP JUMPDEST PUSH1 0x3 SSTORE PUSH1 0x1 PUSH1 0x1 PUSH1 0xA0 SHL SUB DUP3 AND PUSH1 0x0 SWAP1 DUP2 MSTORE PUSH1 0x8 PUSH1 0x20 MSTORE PUSH1 0x40 SWAP1 KECCAK256 SLOAD PUSH2 0x780 SWAP1 DUP3 PUSH4 0xFFFFFFFF PUSH2 0xA86 AND JUMP JUMPDEST PUSH1 0x1 PUSH1 0x1 PUSH1 0xA0 SHL SUB DUP4 AND PUSH1 0x0 DUP2 DUP2 MSTORE PUSH1 0x8 PUSH1 0x20 SWAP1 DUP2 MSTORE PUSH1 0x40 DUP1 DUP4 KECCAK256 SWAP5 SWAP1 SWAP5 SSTORE DUP4 MLOAD SWAP2 DUP3 MSTORE DUP2 ADD SWAP2 SWAP1 SWAP2 MSTORE DUP1 DUP3 ADD DUP4 SWAP1 MSTORE SWAP1 MLOAD PUSH1 0x0 DUP1 MLOAD PUSH1 0x20 PUSH2 0xA97 DUP4 CODECOPY DUP2 MLOAD SWAP2 MSTORE SWAP2 DUP2 SWAP1 SUB PUSH1 0x60 ADD SWAP1 LOG1 POP POP JUMP JUMPDEST PUSH1 0x1 PUSH1 0x1 PUSH1 0xA0 SHL SUB AND PUSH1 0x0 SWAP1 DUP2 MSTORE PUSH1 0x8 PUSH1 0x20 MSTORE PUSH1 0x40 SWAP1 KECCAK256 SLOAD SWAP1 JUMP JUMPDEST PUSH1 0x4 DUP1 SLOAD PUSH1 0x1 PUSH1 0x1 PUSH1 0xA0 SHL SUB NOT AND PUSH1 0x1 PUSH1 0x1 PUSH1 0xA0 SHL SUB SWAP3 SWAP1 SWAP3 AND SWAP2 SWAP1 SWAP2 OR SWAP1 SSTORE JUMP JUMPDEST PUSH1 0x0 DUP1 SLOAD PUSH1 0x40 DUP1 MLOAD PUSH1 0x20 PUSH1 0x2 PUSH1 0x1 DUP6 AND ISZERO PUSH2 0x100 MUL PUSH1 0x0 NOT ADD SWAP1 SWAP5 AND SWAP4 SWAP1 SWAP4 DIV PUSH1 0x1F DUP2 ADD DUP5 SWAP1 DIV DUP5 MUL DUP3 ADD DUP5 ADD SWAP1 SWAP3 MSTORE DUP2 DUP2 MSTORE SWAP3 SWAP2 DUP4 ADD DUP3 DUP3 DUP1 ISZERO PUSH2 0x3F7 JUMPI DUP1 PUSH1 0x1F LT PUSH2 0x3CC JUMPI PUSH2 0x100 DUP1 DUP4 SLOAD DIV MUL DUP4 MSTORE SWAP2 PUSH1 0x20 ADD SWAP2 PUSH2 0x3F7 JUMP JUMPDEST CALLER PUSH1 0x0 SWAP1 DUP2 MSTORE PUSH1 0x8 PUSH1 0x20 MSTORE PUSH1 0x40 DUP2 KECCAK256 SLOAD PUSH2 0x886 SWAP1 DUP4 PUSH4 0xFFFFFFFF PUSH2 0xA31 AND JUMP JUMPDEST CALLER PUSH1 0x0 SWAP1 DUP2 MSTORE PUSH1 0x8 PUSH1 0x20 MSTORE PUSH1 0x40 DUP1 DUP3 KECCAK256 SWAP3 SWAP1 SWAP3 SSTORE PUSH1 0x1 PUSH1 0x1 PUSH1 0xA0 SHL SUB DUP6 AND DUP2 MSTORE KECCAK256 SLOAD PUSH2 0x8B8 SWAP1 DUP4 PUSH4 0xFFFFFFFF PUSH2 0xA86 AND JUMP JUMPDEST PUSH1 0x1 PUSH1 0x1 PUSH1 0xA0 SHL SUB DUP5 AND PUSH1 0x0 DUP2 DUP2 MSTORE PUSH1 0x8 PUSH1 0x20 SWAP1 DUP2 MSTORE PUSH1 0x40 SWAP2 DUP3 SWAP1 KECCAK256 SWAP4 SWAP1 SWAP4 SSTORE DUP1 MLOAD CALLER DUP2 MSTORE SWAP3 DUP4 ADD SWAP2 SWAP1 SWAP2 MSTORE DUP2 DUP2 ADD DUP5 SWAP1 MSTORE MLOAD PUSH1 0x0 DUP1 MLOAD PUSH1 0x20 PUSH2 0xA97 DUP4 CODECOPY DUP2 MLOAD SWAP2 MSTORE SWAP2 DUP2 SWAP1 SUB PUSH1 0x60 ADD SWAP1 LOG1 POP PUSH1 0x1 SWAP3 SWAP2 POP POP JUMP JUMPDEST PUSH1 0x5 SLOAD DUP2 JUMP JUMPDEST PUSH1 0x1 PUSH1 0x1 PUSH1 0xA0 SHL SUB SWAP2 DUP3 AND PUSH1 0x0 SWAP1 DUP2 MSTORE PUSH1 0x9 PUSH1 0x20 SWAP1 DUP2 MSTORE PUSH1 0x40 DUP1 DUP4 KECCAK256 SWAP4 SWAP1 SWAP5 AND DUP3 MSTORE SWAP2 SWAP1 SWAP2 MSTORE KECCAK256 SLOAD SWAP1 JUMP JUMPDEST PUSH1 0x3 SLOAD PUSH2 0x950 SWAP1 DUP3 PUSH4 0xFFFFFFFF PUSH2 0xA86 AND JUMP JUMPDEST PUSH1 0x3 SSTORE PUSH1 0x1 PUSH1 0x1 PUSH1 0xA0 SHL SUB DUP3 AND PUSH1 0x0 SWAP1 DUP2 MSTORE PUSH1 0x8 PUSH1 0x20 MSTORE PUSH1 0x40 SWAP1 KECCAK256 SLOAD PUSH2 0x97C SWAP1 DUP3 PUSH4 0xFFFFFFFF PUSH2 0xA86 AND JUMP JUMPDEST PUSH1 0x1 PUSH1 0x1 PUSH1 0xA0 SHL SUB DUP1 DUP5 AND PUSH1 0x0 SWAP1 DUP2 MSTORE PUSH1 0x8 PUSH1 0x20 MSTORE PUSH1 0x40 DUP1 DUP3 KECCAK256 SWAP4 SWAP1 SWAP4 SSTORE PUSH1 0x7 SLOAD DUP4 MLOAD PUSH4 0x7C60A081 PUSH1 0xE1 SHL DUP2 MSTORE ADDRESS PUSH1 0x4 DUP3 ADD MSTORE PUSH1 0x24 DUP2 ADD DUP7 SWAP1 MSTORE SWAP4 MLOAD SWAP3 AND SWAP3 PUSH4 0xF8C14102 SWAP3 PUSH1 0x44 DUP1 DUP4 ADD SWAP4 SWAP3 DUP3 SWAP1 SUB ADD DUP2 DUP4 DUP8 DUP1 EXTCODESIZE ISZERO DUP1 ISZERO PUSH2 0x9DD JUMPI PUSH1 0x0 DUP1 REVERT JUMPDEST POP GAS CALL ISZERO DUP1 ISZERO PUSH2 0x9F1 JUMPI RETURNDATASIZE PUSH1 0x0 DUP1 RETURNDATACOPY RETURNDATASIZE PUSH1 0x0 REVERT JUMPDEST POP POP PUSH1 0x40 DUP1 MLOAD PUSH1 0x0 DUP2 MSTORE PUSH1 0x1 PUSH1 0x1 PUSH1 0xA0 SHL SUB DUP7 AND PUSH1 0x20 DUP3 ADD MSTORE DUP1 DUP3 ADD DUP6 SWAP1 MSTORE SWAP1 MLOAD PUSH1 0x0 DUP1 MLOAD PUSH1 0x20 PUSH2 0xA97 DUP4 CODECOPY DUP2 MLOAD SWAP2 MSTORE SWAP4 POP SWAP1 DUP2 SWAP1 SUB PUSH1 0x60 ADD SWAP2 POP LOG1 POP POP JUMP JUMPDEST PUSH1 0x0 DUP3 DUP3 GT ISZERO PUSH2 0xA40 JUMPI PUSH1 0x0 DUP1 REVERT JUMPDEST POP SWAP1 SUB SWAP1 JUMP JUMPDEST DUP2 DUP2 MUL DUP3 ISZERO DUP1 PUSH2 0xA5E JUMPI POP DUP2 DUP4 DUP3 DUP2 PUSH2 0xA5B JUMPI INVALID JUMPDEST DIV EQ JUMPDEST PUSH2 0x46B JUMPI PUSH1 0x0 DUP1 REVERT JUMPDEST PUSH1 0x0 DUP1 DUP3 GT PUSH2 0xA75 JUMPI PUSH1 0x0 DUP1 REVERT JUMPDEST DUP2 DUP4 DUP2 PUSH2 0xA7E JUMPI INVALID JUMPDEST DIV SWAP4 SWAP3 POP POP POP JUMP JUMPDEST DUP2 DUP2 ADD DUP3 DUP2 LT ISZERO PUSH2 0x46B JUMPI PUSH1 0x0 DUP1 REVERT INVALID 0xDD CALLCODE MSTORE 0xAD SHL 0xE2 0xC8 SWAP12 PUSH10 0xC2B068FC378DAA952BA7 CALL PUSH4 0xC4A11628 CREATE2 GAS 0x4D CREATE2 0x23 0xB3 0xEF LOG2 PUSH6 0x627A7A723158 KECCAK256 0x4E SWAP1 0xF7 0xB2 SSTORE 0xF7 0xD4 SWAP5 ADDMOD 0xB0 0xC8 MULMOD 0xCD 0xFB PUSH14 0x5FC47DCCEBD25EAE18C5903A2603 RETURNDATACOPY CALLDATALOAD 0xC PUSH5 0x736F6C6343 STOP SDIV GT STOP ORIGIN ","sha1":"b6948e7acb311fb147fb00c2d70f41ac4a1b3be2","source":"pragma solidity ^0.5.0;\n\nimport {AaveLendingPoolMock} from \"./AaveLendingPoolMock.sol\";\n\nlibrary SafeMath {\n    function add(uint a, uint b) internal pure returns (uint c) {\n        c = a + b;\n        require(c >= a); // dev: overflow\n    }\n    function sub(uint a, uint b) internal pure returns (uint c) {\n        require(b <= a); // dev: underflow\n        c = a - b;\n    }\n    function mul(uint a, uint b) internal pure returns (uint c) {\n        c = a * b;\n        require(a == 0 || c / a == b); // dev: overflow\n    }\n    function div(uint a, uint b) internal pure returns (uint c) {\n        require(b > 0); // dev: divide by zero\n        c = a / b;\n    }\n}\n\n\ninterface IERC20 {\n    function transfer(address, uint256) external;\n    function transferFrom(address, address, uint256) external;\n    function decimals() external returns (uint256);\n    function _mint_for_testing(address, uint256) external;\n}\n\n\ncontract ATokenMock {\n\n    using SafeMath for uint256;\n\n    string public symbol;\n    string public name;\n    uint256 public decimals;\n    uint256 public totalSupply;\n\n    address pool;\n\n    // included for compatibility with test suite - always returns 10**18\n    uint256 public _get_rate;\n\n    address lendingPool;\n    IERC20 underlyingToken;\n\n    mapping(address => uint256) balances;\n    mapping(address => mapping(address => uint256)) allowed;\n\n    event Transfer(address from, address to, uint256 value);\n    event Approval(address owner, address spender, uint256 value);\n\n    constructor(\n        string memory _name,\n        string memory _symbol,\n        uint256 _decimals,\n        address _underlyingToken,\n        address _lendingPool\n    )\n        public\n    {\n        symbol = _symbol;\n        name = _name;\n        decimals = _decimals;\n        underlyingToken = IERC20(_underlyingToken);\n        lendingPool = _lendingPool;\n        _get_rate = 10**18;\n        AaveLendingPoolMock(_lendingPool)._add_token(_underlyingToken, address(this));\n    }\n\n    function balanceOf(address _owner) public view returns (uint256) {\n        return balances[_owner];\n    }\n\n    function allowance(\n        address _owner,\n        address _spender\n    )\n        public\n        view\n        returns (uint256)\n    {\n        return allowed[_owner][_spender];\n    }\n\n    function approve(address _spender, uint256 _value) public returns (bool) {\n        allowed[msg.sender][_spender] = _value;\n        emit Approval(msg.sender, _spender, _value);\n        return true;\n    }\n\n    function transfer(address _to, uint256 _value) public returns (bool) {\n        balances[msg.sender] = balances[msg.sender].sub(_value);\n        balances[_to] = balances[_to].add(_value);\n        emit Transfer(msg.sender, _to, _value);\n        return true;\n    }\n\n    function transferFrom(\n        address _from,\n        address _to,\n        uint256 _value\n    )\n        public\n        returns (bool)\n    {\n        balances[_from] = balances[_from].sub(_value);\n        allowed[_from][msg.sender] = allowed[_from][msg.sender].sub(_value);\n        balances[_to] = balances[_to].add(_value);\n        emit Transfer(_from, _to, _value);\n        return true;\n    }\n\n    function redeem(address _from, address _to, uint256 _amount) external {\n        totalSupply = totalSupply.sub(_amount);\n        balances[_from] = balances[_from].sub(_amount);\n        underlyingToken.transfer(_to, _amount);\n        emit Transfer(_from, address(0), _amount);\n    }\n\n    function mint(address _to, uint256 _amount) external {\n        require(msg.sender == lendingPool);\n        totalSupply = totalSupply.add(_amount);\n        balances[_to] = balances[_to].add(_amount);\n        emit Transfer(address(0), _to, _amount);\n    }\n\n    function _set_pool(address _pool) external {\n        pool = _pool;\n    }\n\n    function set_exchange_rate(uint256 _rate) external {\n        /**\n            Because aTokens accrue balance instead of increasing their rate,\n            we simulate a rate change by modifying the token balance of the pool\n         */\n        totalSupply = totalSupply.sub(balances[pool]);\n        balances[pool] = balances[pool].mul(_rate).div(10**18);\n        totalSupply = totalSupply.add(balances[pool]);\n    }\n\n    function _mint_for_testing(address _to, uint256 _amount) external {\n        totalSupply = totalSupply.add(_amount);\n        balances[_to] = balances[_to].add(_amount);\n        underlyingToken._mint_for_testing(address(this), _amount);\n        emit Transfer(address(0), _to, _amount);\n    }\n\n}\n","sourcePath":"contracts/testing/aERC20.sol","type":"contract","deployment":{"address":"0xC404E12D3466acCB625c67dbAb2E1a8a457DEf3c","chainid":"2206","blockHeight":723889}}